:020000040000FA
:08000000803102288731FD2F39
:100F3C0016302100990008005A3021009B008030A7
:100F4C009C009A019D0108008731CF27873187319A
:100F5C00A227873187319E27873108008731AA273E
:100F6C008731FF3022008D00A330F0005530890B03
:100F7C00BD2FF00BBD2F000022008D01A330F0001F
:100F8C005530890BC72FF00BC72F0000B72F8031BE
:100F9C00022822008C018D018E0108302100900066
:100FAC00FF308C00FD308D00FF308E00FC302300B4
:100FBC008E003D308D003F308C00240090018D015F
:100FCC008C018E012100971725008C018D018E015B
:100FDC00FF3026008C00FF308D00FF308E003F303C
:100FEC0027008C00F0308D00FF308E0008002000B0
:040FFC008731B42F56
:020000040001F9
:04000E00E43FFF1EAE
:00000001FF
