:020000040000FA
:08000000803102288731FD2F39
:100F4E001630210099000800383021009B008030B7
:100F5E009C009A019D0108008731CF278731873188
:100F6E00AB2787318731A727873108008731B32711
:100F7E00873120008C144F30890BC32F00002000C6
:100F8E008C104F30890BC92F0000C02F80310228E2
:100F9E0022008C018D018E01083021009000FD3061
:100FAE008C00FF308D00FF308E00FC3023008E0051
:100FBE003F308D003D308C00240090018D018C015E
:100FCE008E012100971725008C018D018E01FF30B7
:100FDE0026008C00FF308D00FF308E003F30270042
:100FEE008C00F0308D00FF308E000800200087311D
:020FFE00BD2F05
:020000040001F9
:04000E00E43FFF1EAE
:00000001FF
