:020000040000FA
:04000000803119280A
:1000060008007E1480310B1F09280A2817282100B2
:10001600911C0E280F2817282000911C132814283D
:10002600172896313A2680317E10090080311B2828
:100036002830840027308500C830FE000030FF00DD
:1000460096316A26803130308400013085000E30CA
:10005600FE000030FF0096316A2680317E102000B7
:100066009731122F21004A08D6004908D5004808C2
:10007600D4004708D3005608EC005508EB00540896
:10008600EA005308E9006908CB006A08CC006B084F
:10009600CD006C08CE001F30CE36CD0CCC0CCB0C70
:1000A600890B4F284C08E0004B08DF00FF30E905BC
:1000B600FF30EA05FF30EB057F30EC05DB306902E7
:1000C6000F306A3B49306B3B3F306C3B03186C2862
:1000D6006D288D28803021006B0239306C3B031867
:1000E600752876287728312C21004A08A30049086C
:1000F600A2004808A1004708A00089318B21803161
:1001060021002308CA002208C9002108C8002008C7
:10011600C700312CD2302100690253306A3B7B3054
:100126006B3B40306C3B031899289A28DF29E43052
:1001360021006902CB306A3B16306B3B40306C3B8A
:100146000318A628A728562921005F08600403196A
:10015600AD28AE2807294A082000C1002100490819
:100166002000C000210048082000BF0021004708E9
:100176002000BE003F30BD00C930BC000F30BB00C0
:10018600DB30BA008B317123803120003D0821001D
:10019600E40020003C082100E30020003B08210089
:1001A600E20020003A082100E10064082000D100A6
:1001B600210063082000D000210062082000CF0043
:1001C600210061082000CE00883175208031200092
:1001D6005108ED005008EC004F08EB004E08EA000D
:1001E60096315E26803120006D082100CA0020006D
:1001F6006C082100C90020006B082100C8002000FF
:100206006A082100C700312CBF302000BD00C9306C
:10021600BC000F30BB00DB30BA0021004A082000CA
:10022600C100210049082000C00021004808200024
:10023600BF00210047082000BE008B3171238031AA
:1002460020003D082100E40020003C082100E300D6
:1002560020003B082100E20020003A082100E100CE
:1002660064082000D100210063082000D00021008E
:1002760062082000CF00210061082000CE008831EE
:1002860075208031200051082100CA002000500846
:100296002100C90020004F082100C80020004E0898
:1002A6002100C700312C21005F086004031D5C2972
:1002B6005D2994294A082000C10021004908200030
:1002C600C000210048082000BF0021004708200088
:1002D600BE00C030BD004930BC000F30BB00DB3073
:1002E600BA008B317123803120003D08ED003C08B7
:1002F600EC003B08EB003A08EA0096315E268031B6
:1003060020006D082100DA0020006C082100D900C9
:1003160020006B082100D80020006A082100D700C1
:10032600CA294A082000C100210049082000C0004F
:10033600210048082000BF00210047082000BE0019
:100346004030BD004930BC000F30BB00DB30BA0086
:100356008B317123803120003D08ED003C08EC0014
:100366003B08EB003A08EA0096315E268031200011
:100376006D082100DA0020006C082100D900200059
:100386006B082100D80020006A082100D7005A080F
:10039600A3005908A2005808A1005708A0008931F7
:1003A6008B21803121002308CA002208C9002108B8
:1003B600C8002008C700312CD63021006902313030
:1003C6006A3BE2306B3B40306C3B0318EB29EC296F
:1003D6001D2BE03021006902ED306A3BAF306B3BEC
:1003E60040306C3B0318F829F929A82A21005F0838
:1003F60060040319FF29002A4F2A40302000BD005F
:100406009630BC00CB30BB00E430BA0021004A086D
:100416002000C100210049082000C0002100480832
:100426002000BF00210047082000BE008B31712349
:10043600803120003D082100E40020003C08210016
:10044600E30020003B082100E20020003A082100DA
:10045600E10064082000D100210063082000D000DC
:10046600210062082000CF00210061082000CE0094
:10047600883175208031200051082100CA002000F3
:1004860050082100C90020004F082100C8002000A4
:100496004E082100C700312C4A082000C100210067
:1004A60049082000C000210048082000BF002100A4
:1004B60047082000BE00C030BD009630BC00CB30DF
:1004C600BB00E430BA008B317123803120003D0837
:1004D6002100E40020003C082100E30020003B0846
:1004E6002100E20020003A082100E1006408200013
:1004F600D100210063082000D000210062082000FE
:10050600CF00210061082000CE008831752080319F
:1005160020005108ED005008EC004F08EB004E0893
:10052600EA0096315E26803120006D082100CA005F
:1005360020006C082100C90020006B082100C800BB
:1005460020006A082100C700312C21005F086004E2
:10055600031DAE2AAF2ADC2AC0302000BD00C930F8
:10056600BC000F30BB00DB30BA0021004A08200077
:10057600C100210049082000C000210048082000D1
:10058600BF00210047082000BE008B317123803157
:1005960020003D082100DE0020003C082100DD008F
:1005A60020003B082100DC0020003A082100DB0087
:1005B600082B40302000BD00C930BC000F30BB0006
:1005C600DB30BA0021004A082000C100210049089A
:1005D6002000C000210048082000BF002100470875
:1005E6002000BE008B317123803120003D082100A0
:1005F600DE0020003C082100DD0020003B08210031
:10060600DC0020003A082100DB005E08A3005D083C
:10061600A2005C08A1005B08A00089318B21803113
:1006260021002308CA002208C9002108C8002008A2
:10063600C700312C803021006B027F306C3B031CDD
:10064600252B262B5A2B21004A082000D1002100F9
:1006560049082000D000210048082000CF002100D2
:1006660047082000CE0021004A082000D5002100BE
:1006760049082000D400210048082000D3002100AA
:1006860047082000D2009631AD268031200051085F
:100696002100CA00200050082100C90020004F0890
:1006A6002100C80020004E082100C700312C21007F
:1006B6004A08A3004908A2004808A1004708A0006C
:1006C600E530CB004B08A400843132248031210070
:1006D6002008CF002108D000890D893B8909D10067
:1006E600D2000B2C6808A3006708A2006608A100C8
:1006F6006508A00089318B21803121002308CA00BA
:100706002208C9002108C8002008C700312C680843
:100716002000D100210067082000D00021006608D3
:100726002000CF00210065082000CE00883175200A
:100736008031200051082100CA0020005008210005
:10074600C90020004F082100C80020004E082100E3
:10075600C700312C68082000ED0021006708200042
:10076600EC00210066082000EB002100650820004F
:10077600EA0096315E26803120006D082100A30034
:1007860020006C082100A20020006B082100A100B7
:1007960020006A082100A00089318B2180312100C8
:1007A6002308CA002208C9002108C8002008C7007B
:1007B600312C68082000D100210067082000D000F5
:1007C600210066082000CF00210065082000CE0029
:1007D60088317520803120005108ED005008EC006A
:1007E6004F08EB004E08EA0096315E268031200065
:1007F6006D082100CA0020006C082100C9002000F5
:100806006B082100C80020006A082100C700312CAF
:1008160003304F05CB0000305005CC0000305105A9
:10082600CD0000305205CE004E08003A03192C2C9C
:10083600DC2B4C08003A0319212CDC2B4B08003A20
:100846000319752B013A03198A2B033A0319AD2BA9
:10085600DC2B4D08003A03191C2CDC2B0800220067
:1008660037082100B600220036082100B500220014
:1008760035082100B400220034082100B300230803
:10088600B6002208B5002108B4002008B3003308DA
:10089600A5003408A6003508A7003608A8001F30B2
:1008A600A836A70CA60CA50C890B532C2608B2005B
:1008B6002508B100FF303305AD00FF303405AE002A
:1008C600FF303505AF007F303605B00080302F028F
:1008D6007F30303B031C702C712CA52C2100230883
:1008E6002000D100210022082000D000210021088C
:1008F6002000CF00210020082000CE002100230880
:100906002000D500210022082000D4002100210863
:100916002000D300210020082000D2009631AD2609
:100926008431210024088600870120004E08C03F3C
:100936004F08C13F5008C23F5108C33F2100A001E4
:10094600A1011E2FDB3021002D020F302E3BC930B6
:100956002F3B4D30303B0318B12CB22CE82D210033
:100966002308F3002208F2002108F1002008F00015
:100976009631CD26843173082100C2007208C10069
:100986007108C0007008BF0042082000A7002100BF
:1009960041082000A600210040082000A5002100F3
:1009A6003F082000A4003F30A3002230A200F93007
:1009B600A1008330A0008D31A925843120002308B1
:1009C600C1002208C0002108BF002008BE003F3039
:1009D600BD000030BC000030BB000030BA008B31D7
:1009E6007123843120003D08D1003C08D0003B082B
:1009F600CF003A08CE00883100208431200051080B
:100A06002100C600200050082100C50020004F0824
:100A16002100C40020004E082100C3004608F30050
:100A26004508F2004408F1004308F0000130873120
:100A36001F27843173082100BE007208BD007108AB
:100A4600BC007008BB003F302000A300C930A200E4
:100A56000F30A100DA30A00021003E082000A700D8
:100A660021003D082000A60021003C082000A5002A
:100A760021003B082000A4008D31A92584312000E7
:100A86002308D1002208D0002108CF002008CE007C
:100A9600210042082000D500210041082000D40092
:100AA600210040082000D30021003F082000D2008A
:100AB6009631AD268431200051082100BA0020006D
:100AC60050082100B90020004F082100B80020007E
:100AD6004E082100B70032302000A3008830A20063
:100AE6008530A100A330A00021003E082000A70009
:100AF60021003D082000A60021003C082000A5009A
:100B060021003B082000A4008D31A9258431200056
:100B16002308D1002208D0002108CF002008CE00EB
:100B260021003A082000D500210039082000D40011
:100B3600210038082000D300210037082000D20009
:100B46009631AD26843121002408860087012000D5
:100B56004E08C03F4F08C13F5008C23F5108C33F2F
:100B66002100310832040319B92DBA2DE32D2408CA
:100B760086008701403F2000EA00413FEB00423FEC
:100B8600EC00433FED0096315E26843121002408B7
:100B96008600870120006A08C03F6B08C13F6C08C9
:100BA600C23F6D08C33F21004309A5004409A600C2
:100BB600A50A0319A60A2508A0002608A1001E2FCB
:100BC6004408A1004308A0001E2F21002308F300BB
:100BD6002208F2002108F1002008F0009631CD2607
:100BE600843173082100C2007208C1007108C00078
:100BF6007008BF0042082000A7002100410820001D
:100C0600A600210040082000A50021003F08200082
:100C1600A4003F30A3002230A200F930A1008330A7
:100C2600A0008D31A925843120002308C1002208A7
:100C3600C0002108BF002008BE003F30BD000030C4
:100C4600BC000030BB000030BA008B317123843108
:100C560020003D08D1003C08D0003B08CF003A08F0
:100C6600CE00883100208431200051082100C600C2
:100C7600200050082100C50020004F082100C400B4
:100C860020004E082100C3004608F3004508F20084
:100C96004408F1004308F000013087311F278431F2
:100CA60073082100BE007208BD007108BC00700800
:100CB600BB003F302000A300C930A2000F30A100C6
:100CC600DA30A00021003E082000A70021003D08E0
:100CD6002000A60021003C082000A50021003B08BA
:100CE6002000A4008D31A925843120002308D100DD
:100CF6002208D0002108CF002008CE00210042089B
:100D06002000D500210041082000D4002100400821
:100D16002000D30021003F082000D2009631AD26E6
:100D26008431200051082100BA002000500821001B
:100D3600B90020004F082100B80020004E0821000D
:100D4600B70032302000A3008830A2008530A10011
:100D5600A330A00021003E082000A70021003D0886
:100D66002000A60021003C082000A50021003B0829
:100D76002000A4008D31A925843120002308D1004C
:100D86002208D0002108CF002008CE0021003A0812
:100D96002000D500210039082000D40021003808A1
:100DA6002000D300210037082000D2009631AD265E
:100DB6008431200051082100AC0020005008210099
:100DC600AB0020004F082100AA0020004E08210099
:100DD600A900310832040319F12EF22E122F2C0825
:100DE6002000ED0021002B082000EC0021002A083D
:100DF6002000EB00210029082000EA0096315E263B
:100E06008431210024088600870120006A08C03F3B
:100E16006B08C13F6C08C23F6D08C33FD62D24083E
:100E2600860087012908C03F2A08C13F2B08C23F18
:100E36002C08C33FE32D0800F80078080319242F77
:100E4600252F392FF31F282F292F392F7009FA0044
:100E56007109FB007209FC007309FD00FA0A031907
:100E6600FB0A0319FC0A0319FD0A412F7308FD004A
:100E76007208FC007108FB007008FA00730872041F
:100E860071047004031D482F492F522F0030F300C0
:100E96000030F2000030F1000030F000CA2F96302A
:100EA600F4007408F900622F0130F4007408F907A1
:100EB6000130FD36FC0CFB0CFA0C890B5C2FFE3066
:100EC6007D05031D672F682F572F7C2F0130F400F7
:100ED6007408F9070130FA070030FB3D0030FC3D8D
:100EE6000030FD3D0130FD36FC0CFB0CFA0C890B85
:100EF600762FFF307D05031D812F822F692F8C2FC2
:100F06000130F9020130FA35FB0DFC0DFD0D890BA0
:100F1600862FFC1B8F2F902F962F023079020318F5
:100F2600952F962F832F7918992F9A2FA22FFF305E
:100F3600FA05FF30FB057F30FC05FF30FD05031089
:100F4600F90C7908F400F501F601F7011830F435CB
:100F5600F50DF60DF70D890BAA2F7408FA0475081E
:100F6600FB047608FC047708FD0478080319BC2FF7
:100F7600BD2FC22FF31FC02FC12FC22FFD177D0813
:100F8600F3007C08F2007B08F1007A08F000080004
:100F960022008C018D018E01083021009000F9306D
:100FA6008C00FF308D00FF308E00FC3023008E0059
:100FB6003F308D0037308C00240090018D018C016C
:100FC6008E012100971725008C018D018E01FF30BF
:100FD60026008C00FF308D00FF308E003F3027004A
:100FE6008C00F0308D00FF308E00080090302A0013
:100FF600910092018F019001080003102000500D0E
:10100600510DD2005208D8005808031D0B280C2891
:1010160015280030D1000030D0000030CF0000305D
:10102600CE0074284E08D2004F08D3005008D400D2
:101036005108D5001F30D536D40CD30CD20C890BF1
:101046001E285208D6005608D700D017FF30CE0506
:10105600FF30CF05FF30D0050030D1059630D802DD
:10106600D81F362837284F285808803A973E031845
:101076003D283E283F280C280130D136D00CCF0C15
:10108600CE0C890B40280130D2005208D807031D28
:101096004D284E283F28642820305802031C542827
:1010A60055285F280C280130CE35CF0DD00DD10D37
:1010B600890B57280130D8025808031D6328642875
:1010C600562857080319682869287428CE09CF09B5
:1010D600D009D109CE0A0319CF0A0319D00A031978
:1010E600D10A080020005108A3005008A2004F08AA
:1010F600A1004E08A0005108A7005008A6004F08FE
:10110600A5004E08A4008D31A925883120002308AA
:10111600E9002208E8002108E7002008E60069083F
:10112600A3006808A2006708A1006608A000690875
:10113600A7006808A6006708A5006608A4008D3108
:10114600A925883120002308E5002208E4002108AB
:10115600E3002008E200BA30BD00B630BC0004301F
:10116600BB003F30BA003730A300CC30A2009A3023
:10117600A1001730A0006908A7006808A600670844
:10118600A5006608A4008D31A92588312000230812
:10119600C1002208C0002108BF002008BE008B3114
:1011A6007123883120003D08D5003C08D4003B0857
:1011B600D3003A08D2006908A3006808A2006708AD
:1011C600A1006608A0006508A7006408A6006308D9
:1011D600A5006208A4008D31A925883120002308C6
:1011E600D9002208D8002108D7002008D6003F30B1
:1011F600BD008030BC000030BB000030BA00BF30FC
:10120600A3000030A2000030A1000030A000690851
:10121600A7006808A6006708A5006608A4008D3127
:10122600A925883120002308C1002208C000210812
:10123600BF002008BE008B317123883120003D0895
:10124600DD003C08DC003B08DB003A08DA003D30F4
:10125600A3002A30A200AA30A1009F30A000650892
:10126600A7006408A6006308A5006208A4008D31E3
:10127600A925883120002308BD002208BC002108CA
:10128600BB002008BA005D08C1005C08C0005B080E
:10129600BF005A08BE008B317123883120003D08FB
:1012A600E1003C08E0003B08DF003A08DE00550894
:1012B600A3005408A2005308A1005208A000590830
:1012C600A7005808A6005708A5005608A4008D31A7
:1012D600A925883120002308BD002208BC0021086A
:1012E600BB002008BA006108C1006008C0005F08A2
:1012F600BF005E08BE008B317123883120003D0897
:10130600D1003C08D0003B08CF003A08CE000800C8
:10131600210023082000A300210022082000A200AB
:10132600210021082000A100210020082000A000A3
:10133600210023082000A700210022082000A60083
:10134600210021082000A500210020082000A4007B
:101356008D31A9258931200023082100BF002000F6
:1013660022082100BE00200021082100BD00200027
:1013760020082100BC003F082000A30021003E08F1
:101386002000A20021003D082000A10021003C0809
:101396002000A00021003F082000A70021003E08F1
:1013A6002000A60021003D082000A50021003C08E1
:1013B6002000A4008D31A9258931200023082100B1
:1013C600AB00200022082100AA00200021082100ED
:1013D600A900200020082100A800B9302000BD0087
:1013E6005030BC000730BB00CF30BA003630A30007
:1013F6003630A2006C30A1003C30A00021003F082E
:101406002000A70021003E082000A60021003D087C
:101416002000A50021003C082000A4008D31A9254C
:10142600893120002308C1002208C0002108BF001E
:101436002008BE008B317123893120003D08210030
:10144600A70020003C082100A60020003B08210040
:10145600A50020003A082100A40023082000A300CC
:10146600210022082000A200210021082000A1005E
:10147600210020082000A00021003F082000A7002E
:1014860021003E082000A60021003D082000A500FE
:1014960021003C082000A4008D31A92589312000B7
:1014A60023082100BB00200022082100BA002000EA
:1014B60021082100B900200020082100B8002B08CF
:1014C6002000A30021002A082000A20021002908EC
:1014D6002000A100210028082000A00021003B08D0
:1014E6002000A70021003A082000A60021003908A4
:1014F6002000A500210038082000A4008D31A92570
:101506008931200023082100AF0020002208210095
:10151600AE00200021082100AD0020002008210097
:10152600AC00BE302000BD002A30BC00AA30BB0093
:10153600AB30BA003C30A3000830A2008830A100CE
:101546008430A00021003F082000A70021003E08AB
:101556002000A60021003D082000A50021003C082F
:101566002000A4008D31A925893120002308C1005F
:101576002208C0002108BF002008BE008B3171235D
:10158600893120003D082100B30020003C082100DD
:10159600B20020003B082100B10020003A082100DB
:1015A600B00023082000BD00210022082000BC0056
:1015B600210021082000BB00210020082000BA00DD
:1015C60021003B082000A30021003A082000A200C9
:1015D600210039082000A100210038082000A000C1
:1015E600210033082000A700210032082000A600B1
:1015F600210031082000A500210030082000A400A9
:101606008D31A925893120002308C1002208C00098
:101616002108BF002008BE008B31712389312000CC
:101626003D082100B70020003C082100B60020003C
:101636003B082100B50020003A082100B400270825
:101646002000A300210026082000A2002100250872
:101656002000A100210024082000A00021002F085E
:101666002000A70021002E082000A60021002D083A
:101676002000A50021002C082000A4008D31A925FA
:10168600893120002308BD002208BC002108BB00C8
:101696002008BA00210037082000C10021003608C2
:1016A6002000C000210035082000BF0021003408BA
:1016B6002000BE008B317123893120003D082100B6
:1016C600A30020003C082100A20020003B082100C6
:1016D600A10020003A082100A000080020003D08D3
:1016E6008039C2004208CA003D35C2004208CC001B
:1016F600BC1F7E2B7F2B802B4C144C080319842B8C
:10170600852B952B4C0A031D892B8A2B922B003097
:10171600BD000030BC000030BB000030BA00BC1772
:10172600BD019D2B0030BD000030BC000030BB0069
:101736000030BA0041088039C2004208CB004B088D
:101746004A060319A72BA82BA92B4A174135C20015
:101756004208CB00C01FB02BB12BB22B4B144B0849
:101766000319B62BB72BC72B4B0A031DBB2BBC2B60
:10177600C42B0030C1000030C0000030BF00003074
:10178600BE00C017C101CF2B0030C1000030C00021
:101796000030BF000030BE004C084B020318D42BAB
:1017A600D52B192C4A1FD82BD92BDD2B8030C20004
:1017B6004208CA064C08C2004208CD004B08C200C7
:1017C6004208CC004D08C2004208CB003A08C200CD
:1017D6004208CD003E08C2004208BA004D08C200C9
:1017E6004208BE003B08C2004208CD003F08C200C6
:1017F6004208BB004D08C2004208BF003C08C200B8
:101806004208CD004008C2004208BC004D08C20094
:101816004208C0003D08C2004208CD004108C2008F
:101826004208BD004D08C2004208C100CD014B0868
:10183600C200C3014308C5004C084202C400031C91
:10184600C5034508803AC60080304602031D2D2C8C
:101856001A304402031C302C312C692C20003D0820
:101866003C043B043A04031D392C3B2C01303C2C30
:101876000030C2004208CD000030BD000030BC0080
:101886000030BB000030BA004B08C2004208CC0052
:10189600702C4D1C4F2C502C562C4D360138C20046
:1018A6004208CD00582C0310CD0C3A1C5B2C5C2C46
:1018B6005D2CCD170130C200BD37BC0CBB0CBA0C79
:1018C600C20B5F2C0130C2004208CC0720004B0837
:1018D6004C02031C6F2C702C4C2C4A1B732C742C42
:1018E600AC2C4C08031D782C792C822C0030BD00C2
:1018F6000030BC000030BB000030BA00A82D3E0806
:10190600BA073F08BB3D4008BC3D4108BD3D3D1CF4
:101916008D2C8E2C382D4D1C912C922C982C4D36BE
:101926000138C2004208CD009A2C0310CD0C3A1C97
:101936009D2C9E2C9F2CCD170130C200BD37BC0CB0
:10194600BB0CBA0CC20BA12C0130C2004208CC075A
:10195600382D3D08803AC2004108803A4202031DF4
:10196600BE2C40083C02031DBE2C3F083B02031D53
:10197600BE2C3E083A020318C12CC22CFA2CFF30AA
:10198600C200FF30C300FF30C400FF30C5003A0874
:101996003E02C6003B083F3BC7003C08403BC80030
:1019A6003D08413BC9004608C2074708C33D4808F1
:1019B600C43D4908C53D4508BD004408BC00430870
:1019C600BB004208BA008030C2004208CA06CD09F0
:1019D600CD0A4D08031DF02CF12C022D0130BA075B
:1019E6000030BB3D0030BC3D0030BD3D022D3E0801
:1019F600BA023F08BB3B4008BC3B4108BD3B3D0823
:101A06003C043B043A04031D092D0A2D342D4D08D0
:101A1600031D0E2D0F2D342D0030BD000030BC00EF
:101A26000030BB000030BA00A82D0130BA35BB0D1E
:101A3600BC0DBD0D890B192DCD1F222D232D242D57
:101A46003A144D1C272D282D2B2D0314CD0D2D2D8D
:101A56000310CD0D4C080319312D322D342D0130D4
:101A6600CC02BC1F372D382D182DCB01CD1F3C2D98
:101A76003D2D4B2D4D087F390319422D432D462D03
:101A8600CB01CB0A4B2D3A1C492D4A2D4B2D432D0C
:101A96004B0803194F2D502D7D2D0130BA0700300C
:101AA600BB3D0030BC3D0030BD3D3D1C5B2D5C2D7B
:101AB6007D2D3A08C2003B08C3003C08C4003D081F
:101AC600C5000130C600C537C40CC30CC20CC60B1A
:101AD600662D4508BD004408BC004308BB0042080B
:101AE600BA004C0A0319782D792D7D2D0130C200DC
:101AF6004208CC074C0A0319812D822D872D4C08EC
:101B0600031D862D872D952D0030BD000030BC00AD
:101B16000030BB000030BA004C08031D932D942DF5
:101B2600952DCA014C1C982D992D9B2DBC179F2DC8
:101B36007F30C2004208BC054C36C2004208BD00D8
:101B4600CA1FA62DA72DA82DBD1708002000230803
:101B56008039A8002808AD002335A8002808B3005E
:101B6600A21FB62DB72DB82D331433080319BC2D7B
:101B7600BD2DCC2D330A031DC12DC22DCA2D00301B
:101B8600A3000030A2000030A1000030A000A21780
:101B9600D42D0030A3000030A2000030A100003098
:101BA600A00027088039A8002808AD062735A80018
:101BB6002808B200A61FE02DE12DE22D32143208CE
:101BC6000319E62DE72DF62D320A031DEB2DEC2D1C
:101BD600F42D0030A7000030A6000030A50000302C
:101BE600A400A617FE2D0030A7000030A600003086
:101BF600A5000030A40032080319022E032E082E79
:101C06003308031D072E082E112E0030A3000030C6
:101C1600A2000030A1000030A000FF2F2008A8007D
:101C26002808F00026089631EF268D31710820002D
:101C3600B9007008B8003808A800A901AA01AB01CC
:101C46002B08B1002A08B0002908AF002808AE000A
:101C56003908A800A901AA01AB012B08B7002A0878
:101C6600B6002908B5002808B4002108A8002808ED
:101C7600F00025089631EF268D3171082000B90055
:101C86007008B8003808A800A901AA01AB01280805
:101C9600AE072908AF3D2A08B03D2B08B13D3908EB
:101CA600A800A901AA01AB012808B4072908B53D77
:101CB6002A08B63D2B08B73D2208A8002808F000E0
:101CC60024089631EF268D3171082000B90070087E
:101CD600B8003808A800A901AA01AB012808AE0778
:101CE6002908AF3D2A08B03D2B08B13D3908A800A8
:101CF600A901AA01AB012808B4072908B53D2A089D
:101D0600B63D2B08B73D0830AE35AF0DB00DB10D61
:101D1600890B872E2108A8002808F0002408963190
:101D2600EF268D3171082000B9007008B800380818
:101D3600AE073908AF3D0030B03DB13D2008A800E0
:101D46002808F00025089631EF268D31710820000D
:101D5600B9007008B8003808AE073908AF3D003042
:101D6600B03DB13D0830AE35AF0DB00DB10D890BAC
:101D7600B62E2008A8002808F00024089631EF2681
:101D86008D3171082000B9007008B8003808AE0718
:101D96003908AF3D0030B03DB13D2108A800280804
:101DA600F00026089631EF268D3171082000B90023
:101DB6007008B8003808B4073908B53D0030B63D9C
:101DC600B73D2208A8002808F00025089631EF261E
:101DD6008D3171082000B9007008B8003808B407C2
:101DE6003908B53D0030B63DB73D2208A8002808A1
:101DF600F00026089631EF268D3171082000B900D3
:101E06007008B8003808A8003908A900AA01AB0173
:101E16000830A835A90DAA0DAB0D890B0C2F280883
:101E2600B4072908B53D2A08B63D2B08B73D2E084C
:101E3600A8002F08A9003008AA003108AB00183006
:101E4600AB36AA0CA90CA80C890B232F2808B407BB
:101E56002908B53D2A08B63D2B08B73D0830AE35F2
:101E6600AF0DB00DB10D890B322F33083207A80024
:101E7600A901A90D2808823EB800FF30293DB90006
:101E86005B2F0130B435B50DB60DB70D890B452F57
:101E9600B11F4E2F4F2F502F34140130AE35AF0DDA
:101EA600B00DB10D890B512FFF30B807FF30B93D8A
:101EB600B61F5E2F5F2F442FB201B11F632F642F11
:101EC600802FFF302E05A800FF302F05A900FF3018
:101ED6003005AA007F303105AB002B082A042904FF
:101EE60028040319772F782F7B2FB201B20A802F8F
:101EF600341C7E2F7F2F802F782F32080319842FD2
:101F0600852FAD2F0130B4070030B53D0030B63D0A
:101F16000030B73D371C902F912FAD2F3408A80005
:101F26003508A9003608AA003708AB000130AC0016
:101F3600AB37AA0CA90CA80CAC0B9B2F2B08B7002F
:101F46002A08B6002908B5002808B4000130B807E9
:101F56000030B93D3908803AA80080302802031DB8
:101F6600B62FFF303802031CB92FBA2FC42F7F308B
:101F76002000B7008030B6000030B5000030B40055
:101F8600F32F20003908803AA80080302802031D6C
:101F9600CE2F013038020318D12FD22FDD2F00307B
:101FA6002000B7000030B6000030B5000030B400A5
:101FB600AD01F32F20003808A8002808B300FF3031
:101FC600B405FF30B5057F30B6050030B705331CC4
:101FD600ED2FEE2FEF2FB6173336A8002808B700DF
:101FE6002D08A8002808B7043708A3003608A20061
:0A1FF6003508A1003408A00008001F
:102C6C00163021009900080020009110963176262C
:102C7C009631080071082000EF007008EE00080083
:102C8C002B000E1370088F00710890000D140800B3
:102C9C00A0302B008E009001CD308F000D14080059
:102CAC005A3021009B0080309C009A019D01080045
:102CBC0020006D086C046B046A040319662E672EE1
:102CCC00692E8030ED06080064008001013101306E
:102CDC00FE020030FF3B7F087E04031D6B2E003488
:102CEC0020006E086F0403197C2E7D2E822E6F0837
:102CFC008A006E080A00963108008731CB2796317E
:102D0C009631562696319631362696318731F927EB
:102D1C00963196314E26963196319626963108008C
:102D2C00013029009700960198010130940093011D
:102D3C0020009110210091140330F0000030F100BC
:102D4C00963140269631803029009500080080305D
:102D5C002000D1065508BD005408BC005308BB0028
:102D6C005208BA005108C1005008C0004F08BF00FB
:102D7C004E08BE008B317123963120003D08D100E6
:102D8C003C08D0003B08CF003A08CE0008002200D7
:102D9C003308F7003208F6003108F5003008F4006B
:102DAC007308F7007208F6007108F5007008F4005B
:102DBC00FF30F405FF30F505FF30F6057F30F705E1
:102DCC007708F3007608F2007508F1007408F0003B
:102DDC000800F800F401F5017008F200F301720824
:102DEC00F6007308F700781CFC2EFD2E012F7608D8
:102DFC00F4077708F53D0130F635F70D890B022FF6
:102E0C000310F80C7808031D0C2F0D2FF92E7508E4
:102E1C00F1007408F00008009631832697312200E7
:102E2C00BC01BD013C08F0003D08F100F201F301CA
:102E3C00003087311F27973173082000A7007208D4
:102E4C00A6007108A5007008A4004030A3006630ED
:102E5C00A2006630A1006630A0008D31A925973103
:102E6C00200023082200A700200022082200A60030
:102E7C00200021082200A500200020082200A40028
:102E8C0027082000A700220026082000A600220008
:102E9C0025082000A500220024082000A4003C30B6
:102EAC00A3008E30A200FA30A1003530A0008D3185
:102EBC00A9259731200023082200AB00200022080E
:102ECC002200AA00200021082200A90020002008CE
:102EDC002200A8002B082100CA0022002A08210089
:102EEC00C900220029082100C8002200280821005E
:102EFC00C70080313520973121004A082200AF00ED
:102F0C00210049082200AE00210048082200AD0033
:102F1C00210047082200AC002F082000A700220047
:102F2C002E082000A60022002D082000A50022005B
:102F3C002C082000A4004330A300C830A2000030AD
:102F4C00A1000030A0008D31A92597312000230865
:102F5C00C1002208C0002108BF002008BE00433079
:102F6C00BD00FF30BC008030BB000030BA008B319C
:102F7C007123973120003D08D1003C08D0003B085C
:102F8C00CF003A08CE0088310020973122003D084E
:102F9C00A1003C08A000A035A10D2830A2002730CC
:102FAC00A3002008220786002108233D870020006B
:102FBC004E08C03F4F08C13F01302200BC07003013
:102FCC00BD3D00303D02643003193C02031CEF2F61
:102FDC00F02F182FBA01BB010930B8000030B9002E
:102FEC00E830F0000330F100963146269731F62F89
:102FFC00803119283C346C3436343634CF340734B1
:10300C005034B9348434883408343C34AB34AA3466
:10301C002A34BE34A334853488343234DA340F3451
:10302C00C9343F348334F93422343F34003400340F
:10303C0000343F340034003440344B3417349A3469
:10304C00CC3437343F340434B634BA349F34AA34D5
:10305C002A343D34003400340034BF34DB340F34B4
:10306C00C9344034E434CB3496344034DB340F343C
:0C307C0049344034DB340F34C9343F3495
:020000040001F9
:04000E00E43FFF1EAE
:00000001FF
